{
  "contractName": "BattleShip",
  "abi": [
    {
      "inputs": [],
      "payable": false,
      "stateMutability": "nonpayable",
      "type": "constructor"
    },
    {
      "anonymous": false,
      "inputs": [
        {
          "indexed": false,
          "internalType": "bytes32",
          "name": "gameId",
          "type": "bytes32"
        },
        {
          "indexed": false,
          "internalType": "address",
          "name": "winner",
          "type": "address"
        }
      ],
      "name": "GameEnded",
      "type": "event"
    },
    {
      "anonymous": false,
      "inputs": [
        {
          "indexed": false,
          "internalType": "bytes32",
          "name": "gameId",
          "type": "bytes32"
        },
        {
          "indexed": false,
          "internalType": "address",
          "name": "player1",
          "type": "address"
        },
        {
          "indexed": false,
          "internalType": "bool",
          "name": "player1GoesFirst",
          "type": "bool"
        },
        {
          "indexed": false,
          "internalType": "uint256",
          "name": "pot",
          "type": "uint256"
        }
      ],
      "name": "GameInitialized",
      "type": "event"
    },
    {
      "anonymous": false,
      "inputs": [
        {
          "indexed": false,
          "internalType": "bytes32",
          "name": "gameId",
          "type": "bytes32"
        },
        {
          "indexed": false,
          "internalType": "address",
          "name": "player2",
          "type": "address"
        }
      ],
      "name": "GameJoined",
      "type": "event"
    },
    {
      "anonymous": false,
      "inputs": [
        {
          "indexed": false,
          "internalType": "bytes32",
          "name": "gameId",
          "type": "bytes32"
        },
        {
          "indexed": false,
          "internalType": "address",
          "name": "currentPlayer",
          "type": "address"
        },
        {
          "indexed": false,
          "internalType": "uint8",
          "name": "x",
          "type": "uint8"
        },
        {
          "indexed": false,
          "internalType": "uint8",
          "name": "y",
          "type": "uint8"
        },
        {
          "indexed": false,
          "internalType": "int8",
          "name": "pieceHit",
          "type": "int8"
        }
      ],
      "name": "HitBattleShip",
      "type": "event"
    },
    {
      "anonymous": false,
      "inputs": [
        {
          "indexed": false,
          "internalType": "bytes32",
          "name": "gameId",
          "type": "bytes32"
        },
        {
          "indexed": false,
          "internalType": "address",
          "name": "player",
          "type": "address"
        }
      ],
      "name": "IsPlayerCalled",
      "type": "event"
    },
    {
      "anonymous": false,
      "inputs": [
        {
          "indexed": false,
          "internalType": "bytes32",
          "name": "gameId",
          "type": "bytes32"
        },
        {
          "indexed": false,
          "internalType": "enum BattleShip.GameState",
          "name": "currentState",
          "type": "uint8"
        },
        {
          "indexed": false,
          "internalType": "enum BattleShip.GameState",
          "name": "comparingState",
          "type": "uint8"
        },
        {
          "indexed": false,
          "internalType": "bool",
          "name": "equal",
          "type": "bool"
        }
      ],
      "name": "IsStateCalled",
      "type": "event"
    },
    {
      "anonymous": false,
      "inputs": [
        {
          "indexed": false,
          "internalType": "bytes32",
          "name": "gameId",
          "type": "bytes32"
        },
        {
          "indexed": false,
          "internalType": "enum BattleShip.GameState",
          "name": "state",
          "type": "uint8"
        }
      ],
      "name": "LogCurrentState",
      "type": "event"
    },
    {
      "anonymous": false,
      "inputs": [
        {
          "indexed": false,
          "internalType": "bytes32",
          "name": "gameId",
          "type": "bytes32"
        },
        {
          "indexed": false,
          "internalType": "address",
          "name": "currentPlayer",
          "type": "address"
        },
        {
          "indexed": false,
          "internalType": "uint8",
          "name": "x",
          "type": "uint8"
        },
        {
          "indexed": false,
          "internalType": "uint8",
          "name": "y",
          "type": "uint8"
        }
      ],
      "name": "MadeMove",
      "type": "event"
    },
    {
      "anonymous": false,
      "inputs": [
        {
          "indexed": false,
          "internalType": "address",
          "name": "player",
          "type": "address"
        },
        {
          "indexed": false,
          "internalType": "string",
          "name": "name",
          "type": "string"
        }
      ],
      "name": "PlayerSetName",
      "type": "event"
    },
    {
      "anonymous": false,
      "inputs": [
        {
          "indexed": false,
          "internalType": "bytes32",
          "name": "gameId",
          "type": "bytes32"
        },
        {
          "indexed": false,
          "internalType": "address",
          "name": "player",
          "type": "address"
        },
        {
          "indexed": false,
          "internalType": "uint8",
          "name": "startX",
          "type": "uint8"
        },
        {
          "indexed": false,
          "internalType": "uint8",
          "name": "endX",
          "type": "uint8"
        },
        {
          "indexed": false,
          "internalType": "uint8",
          "name": "startY",
          "type": "uint8"
        },
        {
          "indexed": false,
          "internalType": "uint8",
          "name": "endY",
          "type": "uint8"
        }
      ],
      "name": "ShipPlaced",
      "type": "event"
    },
    {
      "anonymous": false,
      "inputs": [
        {
          "indexed": false,
          "internalType": "bytes32",
          "name": "gameId",
          "type": "bytes32"
        },
        {
          "indexed": false,
          "internalType": "enum BattleShip.GameState",
          "name": "newState",
          "type": "uint8"
        },
        {
          "indexed": false,
          "internalType": "string",
          "name": "newStateString",
          "type": "string"
        }
      ],
      "name": "StateChanged",
      "type": "event"
    },
    {
      "anonymous": false,
      "inputs": [
        {
          "indexed": false,
          "internalType": "bytes32",
          "name": "gameId",
          "type": "bytes32"
        },
        {
          "indexed": false,
          "internalType": "address",
          "name": "player",
          "type": "address"
        }
      ],
      "name": "WinningsWithdrawn",
      "type": "event"
    },
    {
      "anonymous": false,
      "inputs": [
        {
          "indexed": false,
          "internalType": "bytes32",
          "name": "gameId",
          "type": "bytes32"
        },
        {
          "indexed": false,
          "internalType": "address",
          "name": "player",
          "type": "address"
        },
        {
          "indexed": false,
          "internalType": "string",
          "name": "reason",
          "type": "string"
        }
      ],
      "name": "WithdrawFailed",
      "type": "event"
    },
    {
      "anonymous": false,
      "inputs": [
        {
          "indexed": false,
          "internalType": "bytes32",
          "name": "gameId",
          "type": "bytes32"
        },
        {
          "indexed": false,
          "internalType": "address",
          "name": "player",
          "type": "address"
        }
      ],
      "name": "WonChallenged",
      "type": "event"
    },
    {
      "constant": true,
      "inputs": [
        {
          "internalType": "bytes32",
          "name": "",
          "type": "bytes32"
        }
      ],
      "name": "games",
      "outputs": [
        {
          "internalType": "address",
          "name": "player1",
          "type": "address"
        },
        {
          "internalType": "address",
          "name": "player2",
          "type": "address"
        },
        {
          "internalType": "string",
          "name": "player1Name",
          "type": "string"
        },
        {
          "internalType": "string",
          "name": "player2Name",
          "type": "string"
        },
        {
          "internalType": "address",
          "name": "currentPlayer",
          "type": "address"
        },
        {
          "internalType": "address",
          "name": "winner",
          "type": "address"
        },
        {
          "internalType": "enum BattleShip.GameState",
          "name": "gameState",
          "type": "uint8"
        },
        {
          "internalType": "uint256",
          "name": "pot",
          "type": "uint256"
        },
        {
          "internalType": "uint256",
          "name": "availablePot",
          "type": "uint256"
        }
      ],
      "payable": false,
      "stateMutability": "view",
      "type": "function"
    },
    {
      "constant": true,
      "inputs": [],
      "name": "maxBoatLength",
      "outputs": [
        {
          "internalType": "uint8",
          "name": "",
          "type": "uint8"
        }
      ],
      "payable": false,
      "stateMutability": "view",
      "type": "function"
    },
    {
      "constant": true,
      "inputs": [],
      "name": "minBoatLength",
      "outputs": [
        {
          "internalType": "uint8",
          "name": "",
          "type": "uint8"
        }
      ],
      "payable": false,
      "stateMutability": "view",
      "type": "function"
    },
    {
      "constant": true,
      "inputs": [
        {
          "internalType": "bytes32",
          "name": "",
          "type": "bytes32"
        }
      ],
      "name": "playerNameExists",
      "outputs": [
        {
          "internalType": "bool",
          "name": "",
          "type": "bool"
        }
      ],
      "payable": false,
      "stateMutability": "view",
      "type": "function"
    },
    {
      "constant": true,
      "inputs": [
        {
          "internalType": "address",
          "name": "",
          "type": "address"
        }
      ],
      "name": "playerNames",
      "outputs": [
        {
          "internalType": "string",
          "name": "",
          "type": "string"
        }
      ],
      "payable": false,
      "stateMutability": "view",
      "type": "function"
    },
    {
      "constant": true,
      "inputs": [
        {
          "internalType": "string",
          "name": "source",
          "type": "string"
        }
      ],
      "name": "stringToBytes32",
      "outputs": [
        {
          "internalType": "bytes32",
          "name": "result",
          "type": "bytes32"
        }
      ],
      "payable": false,
      "stateMutability": "pure",
      "type": "function"
    },
    {
      "constant": false,
      "inputs": [
        {
          "internalType": "string",
          "name": "name",
          "type": "string"
        }
      ],
      "name": "setName",
      "outputs": [],
      "payable": false,
      "stateMutability": "nonpayable",
      "type": "function"
    },
    {
      "constant": true,
      "inputs": [
        {
          "internalType": "bytes32",
          "name": "gameId",
          "type": "bytes32"
        }
      ],
      "name": "findPot",
      "outputs": [
        {
          "internalType": "uint256",
          "name": "",
          "type": "uint256"
        }
      ],
      "payable": false,
      "stateMutability": "view",
      "type": "function"
    },
    {
      "constant": false,
      "inputs": [
        {
          "internalType": "bool",
          "name": "goFirst",
          "type": "bool"
        }
      ],
      "name": "newGame",
      "outputs": [
        {
          "internalType": "bytes32",
          "name": "",
          "type": "bytes32"
        }
      ],
      "payable": true,
      "stateMutability": "payable",
      "type": "function"
    },
    {
      "constant": false,
      "inputs": [
        {
          "internalType": "bytes32",
          "name": "gameId",
          "type": "bytes32"
        }
      ],
      "name": "joinGame",
      "outputs": [],
      "payable": true,
      "stateMutability": "payable",
      "type": "function"
    },
    {
      "constant": false,
      "inputs": [
        {
          "internalType": "bytes32",
          "name": "gameId",
          "type": "bytes32"
        }
      ],
      "name": "showBoard",
      "outputs": [
        {
          "internalType": "int8[10][10]",
          "name": "board",
          "type": "int8[10][10]"
        }
      ],
      "payable": false,
      "stateMutability": "nonpayable",
      "type": "function"
    },
    {
      "constant": false,
      "inputs": [
        {
          "internalType": "bytes32",
          "name": "gameId",
          "type": "bytes32"
        }
      ],
      "name": "showOtherPlayerBoard",
      "outputs": [
        {
          "internalType": "int8[10][10]",
          "name": "",
          "type": "int8[10][10]"
        }
      ],
      "payable": false,
      "stateMutability": "nonpayable",
      "type": "function"
    },
    {
      "constant": false,
      "inputs": [
        {
          "internalType": "bytes32",
          "name": "gameId",
          "type": "bytes32"
        },
        {
          "internalType": "uint8",
          "name": "startX",
          "type": "uint8"
        },
        {
          "internalType": "uint8",
          "name": "endX",
          "type": "uint8"
        },
        {
          "internalType": "uint8",
          "name": "startY",
          "type": "uint8"
        },
        {
          "internalType": "uint8",
          "name": "endY",
          "type": "uint8"
        }
      ],
      "name": "placeShip",
      "outputs": [],
      "payable": false,
      "stateMutability": "nonpayable",
      "type": "function"
    },
    {
      "constant": false,
      "inputs": [
        {
          "internalType": "bytes32",
          "name": "gameId",
          "type": "bytes32"
        }
      ],
      "name": "finishPlacing",
      "outputs": [],
      "payable": false,
      "stateMutability": "nonpayable",
      "type": "function"
    },
    {
      "constant": false,
      "inputs": [
        {
          "internalType": "bytes32",
          "name": "gameId",
          "type": "bytes32"
        },
        {
          "internalType": "uint8",
          "name": "x",
          "type": "uint8"
        },
        {
          "internalType": "uint8",
          "name": "y",
          "type": "uint8"
        }
      ],
      "name": "makeMove",
      "outputs": [],
      "payable": false,
      "stateMutability": "nonpayable",
      "type": "function"
    },
    {
      "constant": false,
      "inputs": [
        {
          "internalType": "bytes32",
          "name": "gameId",
          "type": "bytes32"
        }
      ],
      "name": "sayWon",
      "outputs": [],
      "payable": false,
      "stateMutability": "nonpayable",
      "type": "function"
    },
    {
      "constant": false,
      "inputs": [
        {
          "internalType": "bytes32",
          "name": "gameId",
          "type": "bytes32"
        }
      ],
      "name": "withdraw",
      "outputs": [],
      "payable": false,
      "stateMutability": "nonpayable",
      "type": "function"
    }
  ],
  "bytecode": "0x608060405234801561001057600080fd5b506005600460006101000a81548160ff021916908360ff1602179055506002600460016101000a81548160ff021916908360ff1602179055506142e9806100586000396000f3fe6080604052600436106100fe5760003560e01c8063a1ab221611610095578063cfb5192811610064578063cfb519281461060d578063dadc21c3146106e9578063e3388c0a14610724578063e4214c5014610755578063f579f88214610790576100fe565b8063a1ab221614610493578063b8df519b146104c4578063bf47476614610517578063c47f002714610545576100fe565b80634e206c8a116100d15780634e206c8a146102fa5780636ff41204146103945780638e19899e146103e957806399e8c42714610424576100fe565b80632b170aac146101035780633ff332851461014757806343b978b31461019657806347825aa114610260575b600080fd5b6101316004803603602081101561011957600080fd5b8101908080351515906020019092919050505061099f565b6040518082815260200191505060405180910390f35b34801561015357600080fd5b506101806004803603602081101561016a57600080fd5b8101908080359060200190929190505050610f8f565b6040518082815260200191505060405180910390f35b3480156101a257600080fd5b506101e5600480360360208110156101b957600080fd5b81019080803573ffffffffffffffffffffffffffffffffffffffff169060200190929190505050610faf565b6040518080602001828103825283818151815260200191508051906020019080838360005b8381101561022557808201518184015260208101905061020a565b50505050905090810190601f1680156102525780820380516001836020036101000a031916815260200191505b509250505060405180910390f35b34801561026c57600080fd5b506102996004803603602081101561028357600080fd5b810190808035906020019092919050505061105f565b6040518082600a6000925b818410156102ea5782846020020151600a60200280838360005b838110156102d95780820151818401526020810190506102be565b5050505090500192600101926102a4565b9250505091505060405180910390f35b34801561030657600080fd5b506103336004803603602081101561031d57600080fd5b81019080803590602001909291905050506114be565b6040518082600a6000925b818410156103845782846020020151600a60200280838360005b83811015610373578082015181840152602081019050610358565b50505050905001926001019261033e565b9250505091505060405180910390f35b3480156103a057600080fd5b506103e7600480360360608110156103b757600080fd5b8101908080359060200190929190803560ff169060200190929190803560ff1690602001909291905050506116fb565b005b3480156103f557600080fd5b506104226004803603602081101561040c57600080fd5b8101908080359060200190929190505050611e3c565b005b34801561043057600080fd5b50610491600480360360a081101561044757600080fd5b8101908080359060200190929190803560ff169060200190929190803560ff169060200190929190803560ff169060200190929190803560ff1690602001909291905050506121bd565b005b34801561049f57600080fd5b506104a8612959565b604051808260ff1660ff16815260200191505060405180910390f35b3480156104d057600080fd5b506104fd600480360360208110156104e757600080fd5b810190808035906020019092919050505061296c565b604051808215151515815260200191505060405180910390f35b6105436004803603602081101561052d57600080fd5b810190808035906020019092919050505061298c565b005b34801561055157600080fd5b5061060b6004803603602081101561056857600080fd5b810190808035906020019064010000000081111561058557600080fd5b82018360208201111561059757600080fd5b803590602001918460018302840111640100000000831117156105b957600080fd5b91908080601f016020809104026020016040519081016040528093929190818152602001838380828437600081840152601f19601f820116905080830192505050505050509192919290505050612f4d565b005b34801561061957600080fd5b506106d36004803603602081101561063057600080fd5b810190808035906020019064010000000081111561064d57600080fd5b82018360208201111561065f57600080fd5b8035906020019184600183028401116401000000008311171561068157600080fd5b91908080601f016020809104026020016040519081016040528093929190818152602001838380828437600081840152601f19601f8201169050808301925050505050505091929192905050506130e6565b6040518082815260200191505060405180910390f35b3480156106f557600080fd5b506107226004803603602081101561070c57600080fd5b81019080803590602001909291905050506130f4565b005b34801561073057600080fd5b506107396135d0565b604051808260ff1660ff16815260200191505060405180910390f35b34801561076157600080fd5b5061078e6004803603602081101561077857600080fd5b81019080803590602001909291905050506135e3565b005b34801561079c57600080fd5b506107c9600480360360208110156107b357600080fd5b8101908080359060200190929190505050613b6d565b604051808a73ffffffffffffffffffffffffffffffffffffffff1673ffffffffffffffffffffffffffffffffffffffff1681526020018973ffffffffffffffffffffffffffffffffffffffff1673ffffffffffffffffffffffffffffffffffffffff16815260200180602001806020018873ffffffffffffffffffffffffffffffffffffffff1673ffffffffffffffffffffffffffffffffffffffff1681526020018773ffffffffffffffffffffffffffffffffffffffff1673ffffffffffffffffffffffffffffffffffffffff1681526020018660038111156108a957fe5b60ff16815260200185815260200184815260200183810383528a818151815260200191508051906020019080838360005b838110156108f55780820151818401526020810190506108da565b50505050905090810190601f1680156109225780820380516001836020036101000a031916815260200191505b50838103825289818151815260200191508051906020019080838360005b8381101561095b578082015181840152602081019050610940565b50505050905090810190601f1680156109885780820380516001836020036101000a031916815260200191505b509b50505050505050505050505060405180910390f35b60008060001b610a846000803373ffffffffffffffffffffffffffffffffffffffff1673ffffffffffffffffffffffffffffffffffffffff1681526020019081526020016000208054600181600116156101000203166002900480601f016020809104026020016040519081016040528092919081815260200182805460018160011615610100020316600290048015610a7a5780601f10610a4f57610100808354040283529160200191610a7a565b820191906000526020600020905b815481529060010190602001808311610a5d57829003601f168201915b50505050506130e6565b14610f8a5760003411610a9657600080fd5b60003343604051602001808373ffffffffffffffffffffffffffffffffffffffff1673ffffffffffffffffffffffffffffffffffffffff1660601b815260140182815260200192505050604051602081830303815290604052805190602001209050600360003373ffffffffffffffffffffffffffffffffffffffff1673ffffffffffffffffffffffffffffffffffffffff1681526020019081526020016000208190806001815401808255809150509060018203906000526020600020016000909192909190915055506040518061012001604052803373ffffffffffffffffffffffffffffffffffffffff168152602001600073ffffffffffffffffffffffffffffffffffffffff1681526020016000803373ffffffffffffffffffffffffffffffffffffffff1673ffffffffffffffffffffffffffffffffffffffff1681526020019081526020016000208054600181600116156101000203166002900480601f016020809104026020016040519081016040528092919081815260200182805460018160011615610100020316600290048015610c785780601f10610c4d57610100808354040283529160200191610c78565b820191906000526020600020905b815481529060010190602001808311610c5b57829003601f168201915b50505050508152602001604051806020016040528060008152508152602001600073ffffffffffffffffffffffffffffffffffffffff168152602001600073ffffffffffffffffffffffffffffffffffffffff16815260200160006003811115610cde57fe5b8152602001600234028152602001600234028152506002600083815260200190815260200160002060008201518160000160006101000a81548173ffffffffffffffffffffffffffffffffffffffff021916908373ffffffffffffffffffffffffffffffffffffffff16021790555060208201518160010160006101000a81548173ffffffffffffffffffffffffffffffffffffffff021916908373ffffffffffffffffffffffffffffffffffffffff1602179055506040820151816002019080519060200190610db092919061408c565b506060820151816003019080519060200190610dcd92919061408c565b5060808201518160040160006101000a81548173ffffffffffffffffffffffffffffffffffffffff021916908373ffffffffffffffffffffffffffffffffffffffff16021790555060a08201518160050160006101000a81548173ffffffffffffffffffffffffffffffffffffffff021916908373ffffffffffffffffffffffffffffffffffffffff16021790555060c08201518160050160146101000a81548160ff02191690836003811115610e8057fe5b021790555060e0820151816006015561010082015181600701559050508215610ef957336002600083815260200190815260200160002060040160006101000a81548173ffffffffffffffffffffffffffffffffffffffff021916908373ffffffffffffffffffffffffffffffffffffffff1602179055505b7f5d88f69cc228a862fcd5b72b08f2625f04b37eb248f30b8e63f72b77d022445a81338560023402604051808581526020018473ffffffffffffffffffffffffffffffffffffffff1673ffffffffffffffffffffffffffffffffffffffff1681526020018315151515815260200182815260200194505050505060405180910390a1610f858133613d78565b809150505b919050565b600060026000838152602001908152602001600020600601549050919050565b60006020528060005260406000206000915090508054600181600116156101000203166002900480601f0160208091040260200160405190810160405280929190818152602001828054600181600116156101000203166002900480156110575780601f1061102c57610100808354040283529160200191611057565b820191906000526020600020905b81548152906001019060200180831161103a57829003601f168201915b505050505081565b61106761410c565b817f30c126ddfd78b554590c8e0062ead3303c3d42fee51c3546f36f6daab83bc0a78133604051808381526020018273ffffffffffffffffffffffffffffffffffffffff1673ffffffffffffffffffffffffffffffffffffffff1681526020019250505060405180910390a16002600082815260200190815260200160002060000160009054906101000a900473ffffffffffffffffffffffffffffffffffffffff1673ffffffffffffffffffffffffffffffffffffffff163373ffffffffffffffffffffffffffffffffffffffff1614806111a457506002600082815260200190815260200160002060010160009054906101000a900473ffffffffffffffffffffffffffffffffffffffff1673ffffffffffffffffffffffffffffffffffffffff163373ffffffffffffffffffffffffffffffffffffffff16145b156114b857600260038111156111b657fe5b6002600085815260200190815260200160002060050160149054906101000a900460ff1660038111156111e557fe5b148061122957506003808111156111f857fe5b6002600085815260200190815260200160002060050160149054906101000a900460ff16600381111561122757fe5b145b61123257600080fd5b600061123e8433613f65565b905060006002600086815260200190815260200160002060080160008373ffffffffffffffffffffffffffffffffffffffff1673ffffffffffffffffffffffffffffffffffffffff168152602001908152602001600020905060008090505b600a8160ff1610156114195760008090505b600a81101561140b576000838360ff16600a81106112c957fe5b0182600a81106112d557fe5b602091828204019190069054906101000a900460000b60000b13801561134257506001600460009054906101000a900460ff160160ff16838360ff16600a811061131b57fe5b0182600a811061132757fe5b602091828204019190069054906101000a900460000b60000b125b1561138d57600060058360ff16600a811061135957fe5b0182600a811061136557fe5b602091828204019190066101000a81548160ff021916908360000b60ff1602179055506113fe565b828260ff16600a811061139c57fe5b0181600a81106113a857fe5b602091828204019190069054906101000a900460000b60058360ff16600a81106113ce57fe5b0182600a81106113da57fe5b602091828204019190066101000a81548160ff021916908360000b60ff1602179055505b80806001019150506112af565b50808060010191505061129d565b506005600a80602002604051908101604052809291906000905b828210156114af57838201600a806020026040519081016040528092919082600a801561149b576020028201916000905b82829054906101000a900460000b60000b815260200190600101906020826000010492830192600103820291508084116114645790505b505050505081526020019060010190611433565b50505050935050505b50919050565b6114c661410c565b817f30c126ddfd78b554590c8e0062ead3303c3d42fee51c3546f36f6daab83bc0a78133604051808381526020018273ffffffffffffffffffffffffffffffffffffffff1673ffffffffffffffffffffffffffffffffffffffff1681526020019250505060405180910390a16002600082815260200190815260200160002060000160009054906101000a900473ffffffffffffffffffffffffffffffffffffffff1673ffffffffffffffffffffffffffffffffffffffff163373ffffffffffffffffffffffffffffffffffffffff16148061160357506002600082815260200190815260200160002060010160009054906101000a900473ffffffffffffffffffffffffffffffffffffffff1673ffffffffffffffffffffffffffffffffffffffff163373ffffffffffffffffffffffffffffffffffffffff16145b156116f5576002600084815260200190815260200160002060080160003373ffffffffffffffffffffffffffffffffffffffff1673ffffffffffffffffffffffffffffffffffffffff168152602001908152602001600020600a80602002604051908101604052809291906000905b828210156116ee57838201600a806020026040519081016040528092919082600a80156116da576020028201916000905b82829054906101000a900460000b60000b815260200190600101906020826000010492830192600103820291508084116116a35790505b505050505081526020019060010190611672565b5050505091505b50919050565b8260027fb50b8c7887cd42a9ec052cf6f08c93c0987703edc4bb85236958ac3effb6aacd82826002600086815260200190815260200160002060050160149054906101000a900460ff166002600087815260200190815260200160002060050160149054906101000a900460ff16600381111561177457fe5b85600381111561178057fe5b146040518085815260200184600381111561179757fe5b60ff1681526020018360038111156117ab57fe5b60ff1681526020018215151515815260200194505050505060405180910390a16002600083815260200190815260200160002060050160149054906101000a900460ff1660038111156117fa57fe5b81600381111561180657fe5b1415611e3557846002600082815260200190815260200160002060040160009054906101000a900473ffffffffffffffffffffffffffffffffffffffff1673ffffffffffffffffffffffffffffffffffffffff163373ffffffffffffffffffffffffffffffffffffffff161415611e335760006118838733613f65565b905060006002600089815260200190815260200160002060080160008373ffffffffffffffffffffffffffffffffffffffff1673ffffffffffffffffffffffffffffffffffffffff1681526020019081526020016000208760ff16600a81106118e857fe5b018660ff16600a81106118f757fe5b602091828204019190069054906101000a900460000b60000b121561191b57600080fd5b60006002600089815260200190815260200160002060080160008373ffffffffffffffffffffffffffffffffffffffff1673ffffffffffffffffffffffffffffffffffffffff1681526020019081526020016000208760ff16600a811061197e57fe5b018660ff16600a811061198d57fe5b602091828204019190069054906101000a900460000b60000b138015611a4f57506001600460009054906101000a900460ff160160ff166002600089815260200190815260200160002060080160008373ffffffffffffffffffffffffffffffffffffffff1673ffffffffffffffffffffffffffffffffffffffff1681526020019081526020016000208760ff16600a8110611a2557fe5b018660ff16600a8110611a3457fe5b602091828204019190069054906101000a900460000b60000b125b15611cae577f27ebdceca682d5f1c1fcaf57d99ed41d9e7940a7f5453e4f87dd387844502e6787338888600260008d815260200190815260200160002060080160008773ffffffffffffffffffffffffffffffffffffffff1673ffffffffffffffffffffffffffffffffffffffff1681526020019081526020016000208b60ff16600a8110611ada57fe5b018a60ff16600a8110611ae957fe5b602091828204019190069054906101000a900460000b604051808681526020018573ffffffffffffffffffffffffffffffffffffffff1673ffffffffffffffffffffffffffffffffffffffff1681526020018460ff1660ff1681526020018360ff1660ff1681526020018260000b60000b81526020019550505050505060405180910390a16002600088815260200190815260200160002060080160008273ffffffffffffffffffffffffffffffffffffffff1673ffffffffffffffffffffffffffffffffffffffff1681526020019081526020016000208660ff16600a8110611bcf57fe5b018560ff16600a8110611bde57fe5b602091828204019190069054906101000a900460000b7fffffffffffffffffffffffffffffffffffffffffffffffffffffffffffffffff026002600089815260200190815260200160002060080160008373ffffffffffffffffffffffffffffffffffffffff1673ffffffffffffffffffffffffffffffffffffffff1681526020019081526020016000208760ff16600a8110611c7757fe5b018660ff16600a8110611c8657fe5b602091828204019190066101000a81548160ff021916908360000b60ff160217905550611d55565b6001600460009054906101000a900460ff16016002600089815260200190815260200160002060080160008373ffffffffffffffffffffffffffffffffffffffff1673ffffffffffffffffffffffffffffffffffffffff1681526020019081526020016000208760ff16600a8110611d2257fe5b018660ff16600a8110611d3157fe5b602091828204019190066101000a81548160ff021916908360000b60ff1602179055505b806002600089815260200190815260200160002060040160006101000a81548173ffffffffffffffffffffffffffffffffffffffff021916908373ffffffffffffffffffffffffffffffffffffffff1602179055507f4b1ac43a65a3fc254af1822cbe4486241d145958d838bab95001aedfd45b09af87338888604051808581526020018473ffffffffffffffffffffffffffffffffffffffff1673ffffffffffffffffffffffffffffffffffffffff1681526020018360ff1660ff1681526020018260ff1660ff16815260200194505050505060405180910390a1505b505b5050505050565b600380811115611e4857fe5b6002600083815260200190815260200160002060050160149054906101000a900460ff166003811115611e7757fe5b14611f25577fd8ba5a086eb699dea1c1fac164bb49dd3e5e16d2d6641b9bb54d36431e3c56c38133604051808381526020018273ffffffffffffffffffffffffffffffffffffffff1673ffffffffffffffffffffffffffffffffffffffff16815260200180602001828103825260178152602001807f546869732067616d652069736e74206f76657220796574000000000000000000815250602001935050505060405180910390a16121ba565b6000600260008381526020019081526020016000206007015490506000811115612130576002600083815260200190815260200160002060050160009054906101000a900473ffffffffffffffffffffffffffffffffffffffff1673ffffffffffffffffffffffffffffffffffffffff163373ffffffffffffffffffffffffffffffffffffffff16141561208657600060026000848152602001908152602001600020600701819055503373ffffffffffffffffffffffffffffffffffffffff166108fc829081150290604051600060405180830381858888f19350505050158015612015573d6000803e3d6000fd5b507f255898c86cfbf62a32125aa6ad84b1687328b28c83569cd720d2d89453337f1a8233604051808381526020018273ffffffffffffffffffffffffffffffffffffffff1673ffffffffffffffffffffffffffffffffffffffff1681526020019250505060405180910390a161212b565b7fd8ba5a086eb699dea1c1fac164bb49dd3e5e16d2d6641b9bb54d36431e3c56c38233604051808381526020018273ffffffffffffffffffffffffffffffffffffffff1673ffffffffffffffffffffffffffffffffffffffff168152602001806020018281038252601e8152602001807f5468697320706c61796572206861736e7420776f6e207468652067616d650000815250602001935050505060405180910390a15b6121b8565b7fd8ba5a086eb699dea1c1fac164bb49dd3e5e16d2d6641b9bb54d36431e3c56c38233604051808381526020018273ffffffffffffffffffffffffffffffffffffffff1673ffffffffffffffffffffffffffffffffffffffff168152602001806020018281038252602b81526020018061428a602b9139604001935050505060405180910390a15b505b50565b847f30c126ddfd78b554590c8e0062ead3303c3d42fee51c3546f36f6daab83bc0a78133604051808381526020018273ffffffffffffffffffffffffffffffffffffffff1673ffffffffffffffffffffffffffffffffffffffff1681526020019250505060405180910390a16002600082815260200190815260200160002060000160009054906101000a900473ffffffffffffffffffffffffffffffffffffffff1673ffffffffffffffffffffffffffffffffffffffff163373ffffffffffffffffffffffffffffffffffffffff1614806122fa57506002600082815260200190815260200160002060010160009054906101000a900473ffffffffffffffffffffffffffffffffffffffff1673ffffffffffffffffffffffffffffffffffffffff163373ffffffffffffffffffffffffffffffffffffffff16145b15612951578560017fb50b8c7887cd42a9ec052cf6f08c93c0987703edc4bb85236958ac3effb6aacd82826002600086815260200190815260200160002060050160149054906101000a900460ff166002600087815260200190815260200160002060050160149054906101000a900460ff16600381111561237857fe5b85600381111561238457fe5b146040518085815260200184600381111561239b57fe5b60ff1681526020018360038111156123af57fe5b60ff1681526020018215151515815260200194505050505060405180910390a16002600083815260200190815260200160002060050160149054906101000a900460ff1660038111156123fe57fe5b81600381111561240a57fe5b141561294e578560ff168760ff16148061242957508360ff168560ff16145b61243257600080fd5b8560ff168760ff16108061244b57508360ff168560ff16105b61245457600080fd5b600a8760ff1610801561246b575060008760ff1610155b801561247a5750600a8660ff16105b801561248a575060008660ff1610155b80156124995750600a8560ff16105b80156124a9575060008560ff1610155b80156124b85750600a8460ff16105b80156124c8575060008460ff1610155b6124d157600080fd5b60008790505b8660ff168160ff16116125a75760008690505b8560ff168160ff1611612599576000600260008c815260200190815260200160002060080160003373ffffffffffffffffffffffffffffffffffffffff1673ffffffffffffffffffffffffffffffffffffffff1681526020019081526020016000208360ff16600a811061255a57fe5b018260ff16600a811061256957fe5b602091828204019190069054906101000a900460000b60000b1461258c57600080fd5b80806001019150506124ea565b5080806001019150506124d7565b506000600190508660ff168860ff1614156125d6576125cd8560ff168760ff160361404f565b810190506125fb565b8460ff168660ff1614156125fa576125f58760ff168960ff160361404f565b810190505b5b600460009054906101000a900460ff1660ff168160ff16111580156126355750600460019054906101000a900460ff1660ff168160ff1610155b61263e57600080fd5b600260008a815260200190815260200160002060090160003373ffffffffffffffffffffffffffffffffffffffff1673ffffffffffffffffffffffffffffffffffffffff168152602001908152602001600020600460019054906101000a900460ff16820360ff16600481106126b057fe5b602091828204019190069054906101000a900460ff16156126d057600080fd5b6001600260008b815260200190815260200160002060090160003373ffffffffffffffffffffffffffffffffffffffff1673ffffffffffffffffffffffffffffffffffffffff168152602001908152602001600020600460019054906101000a900460ff16830360ff166004811061274457fe5b602091828204019190066101000a81548160ff0219169083151502179055507ffca94935b0cf28455af1a24850a248bbabdcde82ce731f3bf827a499ddb3b50389600260008c815260200190815260200160002060050160149054906101000a900460ff16604051808381526020018260038111156127bf57fe5b60ff1681526020019250505060405180910390a160008890505b8760ff168160ff16116128a85760008790505b8660ff168160ff161161289a5782600260008d815260200190815260200160002060080160003373ffffffffffffffffffffffffffffffffffffffff1673ffffffffffffffffffffffffffffffffffffffff1681526020019081526020016000208360ff16600a811061285b57fe5b018260ff16600a811061286a57fe5b602091828204019190066101000a81548160ff021916908360000b60ff16021790555080806001019150506127ec565b5080806001019150506127d9565b507f25ebc185311f71ba700ebfc50d7596b6009430be2198080fe828d755c32e160289338a8a8a8a604051808781526020018673ffffffffffffffffffffffffffffffffffffffff1673ffffffffffffffffffffffffffffffffffffffff1681526020018560ff1660ff1681526020018460ff1660ff1681526020018360ff1660ff1681526020018260ff1660ff168152602001965050505050505060405180910390a1505b50505b505050505050565b600460009054906101000a900460ff1681565b60016020528060005260406000206000915054906101000a900460ff1681565b6000801b612a6f6000803373ffffffffffffffffffffffffffffffffffffffff1673ffffffffffffffffffffffffffffffffffffffff1681526020019081526020016000208054600181600116156101000203166002900480601f016020809104026020016040519081016040528092919081815260200182805460018160011615610100020316600290048015612a655780601f10612a3a57610100808354040283529160200191612a65565b820191906000526020600020905b815481529060010190602001808311612a4857829003601f168201915b50505050506130e6565b14612f4a578060007fb50b8c7887cd42a9ec052cf6f08c93c0987703edc4bb85236958ac3effb6aacd82826002600086815260200190815260200160002060050160149054906101000a900460ff166002600087815260200190815260200160002060050160149054906101000a900460ff166003811115612aed57fe5b856003811115612af957fe5b1460405180858152602001846003811115612b1057fe5b60ff168152602001836003811115612b2457fe5b60ff1681526020018215151515815260200194505050505060405180910390a16002600083815260200190815260200160002060050160149054906101000a900460ff166003811115612b7357fe5b816003811115612b7f57fe5b1415612f4757600073ffffffffffffffffffffffffffffffffffffffff166002600085815260200190815260200160002060010160009054906101000a900473ffffffffffffffffffffffffffffffffffffffff1673ffffffffffffffffffffffffffffffffffffffff1614612bf457600080fd5b60028060008581526020019081526020016000206006015481612c1357fe5b043414612c1f57600080fd5b336002600085815260200190815260200160002060010160006101000a81548173ffffffffffffffffffffffffffffffffffffffff021916908373ffffffffffffffffffffffffffffffffffffffff1602179055506000803373ffffffffffffffffffffffffffffffffffffffff1673ffffffffffffffffffffffffffffffffffffffff168152602001908152602001600020600260008581526020019081526020016000206003019080546001816001161561010002031660029004612ce792919061413a565b50600360003373ffffffffffffffffffffffffffffffffffffffff1673ffffffffffffffffffffffffffffffffffffffff168152602001908152602001600020839080600181540180825580915050906001820390600052602060002001600090919290919091505550600073ffffffffffffffffffffffffffffffffffffffff166002600085815260200190815260200160002060040160009054906101000a900473ffffffffffffffffffffffffffffffffffffffff1673ffffffffffffffffffffffffffffffffffffffff161415612e1257336002600085815260200190815260200160002060040160006101000a81548173ffffffffffffffffffffffffffffffffffffffff021916908373ffffffffffffffffffffffffffffffffffffffff1602179055505b612e1c8333613d78565b7f719256502a190a7b4efbca7f56497055f1dccc51e2dca31d166dd41353fa21c28333604051808381526020018273ffffffffffffffffffffffffffffffffffffffff1673ffffffffffffffffffffffffffffffffffffffff1681526020019250505060405180910390a160016002600085815260200190815260200160002060050160146101000a81548160ff02191690836003811115612eba57fe5b02179055507fb4c24ba44adc7dd6a2c224259edcf26e548b1048e4b8193ee5c753d4feb33bb183600160405180838152602001826003811115612ef957fe5b60ff16815260200180602001828103825260098152602001807f53657474696e6755700000000000000000000000000000000000000000000000815250602001935050505060405180910390a15b50505b50565b601e81511115612f5c57600080fd5b6000612f67826130e6565b90506001600082815260200190815260200160002060009054906101000a900460ff1615612f9457600080fd5b816000803373ffffffffffffffffffffffffffffffffffffffff1673ffffffffffffffffffffffffffffffffffffffff1681526020019081526020016000209080519060200190612fe69291906141c1565b50600180600083815260200190815260200160002060006101000a81548160ff0219169083151502179055507f8331bc8921688bfe640115624ac39a637c5057e7741189a77ee8c79829563acd3383604051808373ffffffffffffffffffffffffffffffffffffffff1673ffffffffffffffffffffffffffffffffffffffff16815260200180602001828103825283818151815260200191508051906020019080838360005b838110156130a757808201518184015260208101905061308c565b50505050905090810190601f1680156130d45780820380516001836020036101000a031916815260200191505b50935050505060405180910390a15050565b600060208201519050919050565b807f30c126ddfd78b554590c8e0062ead3303c3d42fee51c3546f36f6daab83bc0a78133604051808381526020018273ffffffffffffffffffffffffffffffffffffffff1673ffffffffffffffffffffffffffffffffffffffff1681526020019250505060405180910390a16002600082815260200190815260200160002060000160009054906101000a900473ffffffffffffffffffffffffffffffffffffffff1673ffffffffffffffffffffffffffffffffffffffff163373ffffffffffffffffffffffffffffffffffffffff16148061323157506002600082815260200190815260200160002060010160009054906101000a900473ffffffffffffffffffffffffffffffffffffffff1673ffffffffffffffffffffffffffffffffffffffff163373ffffffffffffffffffffffffffffffffffffffff16145b156135cc578160017fb50b8c7887cd42a9ec052cf6f08c93c0987703edc4bb85236958ac3effb6aacd82826002600086815260200190815260200160002060050160149054906101000a900460ff166002600087815260200190815260200160002060050160149054906101000a900460ff1660038111156132af57fe5b8560038111156132bb57fe5b14604051808581526020018460038111156132d257fe5b60ff1681526020018360038111156132e657fe5b60ff1681526020018215151515815260200194505050505060405180910390a16002600083815260200190815260200160002060050160149054906101000a900460ff16600381111561333557fe5b81600381111561334157fe5b14156135c95760006001905060008090505b600460019054906101000a900460ff16600460009054906101000a900460ff160360ff168160ff16116134fe576002600087815260200190815260200160002060090160006002600089815260200190815260200160002060000160009054906101000a900473ffffffffffffffffffffffffffffffffffffffff1673ffffffffffffffffffffffffffffffffffffffff1673ffffffffffffffffffffffffffffffffffffffff1681526020019081526020016000208160ff166004811061341757fe5b602091828204019190069054906101000a900460ff1615806134e357506002600087815260200190815260200160002060090160006002600089815260200190815260200160002060010160009054906101000a900473ffffffffffffffffffffffffffffffffffffffff1673ffffffffffffffffffffffffffffffffffffffff1673ffffffffffffffffffffffffffffffffffffffff1681526020019081526020016000208160ff16600481106134cb57fe5b602091828204019190069054906101000a900460ff16155b156134f157600091506134fe565b8080600101915050613353565b508061350957600080fd5b600280600087815260200190815260200160002060050160146101000a81548160ff0219169083600381111561353b57fe5b02179055507fb4c24ba44adc7dd6a2c224259edcf26e548b1048e4b8193ee5c753d4feb33bb18560026040518083815260200182600381111561357a57fe5b60ff16815260200180602001828103825260078152602001807f506c6179696e6700000000000000000000000000000000000000000000000000815250602001935050505060405180910390a1505b50505b5050565b600460019054906101000a900460ff1681565b807f30c126ddfd78b554590c8e0062ead3303c3d42fee51c3546f36f6daab83bc0a78133604051808381526020018273ffffffffffffffffffffffffffffffffffffffff1673ffffffffffffffffffffffffffffffffffffffff1681526020019250505060405180910390a16002600082815260200190815260200160002060000160009054906101000a900473ffffffffffffffffffffffffffffffffffffffff1673ffffffffffffffffffffffffffffffffffffffff163373ffffffffffffffffffffffffffffffffffffffff16148061372057506002600082815260200190815260200160002060010160009054906101000a900473ffffffffffffffffffffffffffffffffffffffff1673ffffffffffffffffffffffffffffffffffffffff163373ffffffffffffffffffffffffffffffffffffffff16145b15613b69578160027fb50b8c7887cd42a9ec052cf6f08c93c0987703edc4bb85236958ac3effb6aacd82826002600086815260200190815260200160002060050160149054906101000a900460ff166002600087815260200190815260200160002060050160149054906101000a900460ff16600381111561379e57fe5b8560038111156137aa57fe5b14604051808581526020018460038111156137c157fe5b60ff1681526020018360038111156137d557fe5b60ff1681526020018215151515815260200194505050505060405180910390a16002600083815260200190815260200160002060050160149054906101000a900460ff16600381111561382457fe5b81600381111561383057fe5b1415613b66577fe3ba00a8dded0a3010943716a9cd686d729f536fd0e8d41406c43591354b9d9a8433604051808381526020018273ffffffffffffffffffffffffffffffffffffffff1673ffffffffffffffffffffffffffffffffffffffff1681526020019250505060405180910390a160006138ad8533613f65565b905060008090506000600460019054906101000a900460ff1690505b600460009054906101000a900460ff1660ff168160ff16116138f757808201915080806001019150506138c9565b5060006002600088815260200190815260200160002060080160008473ffffffffffffffffffffffffffffffffffffffff1673ffffffffffffffffffffffffffffffffffffffff1681526020019081526020016000209050600080905060008090505b600a8160ff1610156139d35760008090505b600a8110156139c5576000848360ff16600a811061398657fe5b0182600a811061399257fe5b602091828204019190069054906101000a900460000b60000b12156139b8576001830192505b808060010191505061396c565b50808060010191505061395a565b508260ff168160ff1610613b61576003600260008a815260200190815260200160002060050160146101000a81548160ff02191690836003811115613a1457fe5b02179055507fb4c24ba44adc7dd6a2c224259edcf26e548b1048e4b8193ee5c753d4feb33bb188600360405180838152602001826003811115613a5357fe5b60ff16815260200180602001828103825260088152602001807f46696e6973686564000000000000000000000000000000000000000000000000815250602001935050505060405180910390a133600260008a815260200190815260200160002060050160006101000a81548173ffffffffffffffffffffffffffffffffffffffff021916908373ffffffffffffffffffffffffffffffffffffffff1602179055507fa23e518eb8cf70d847192dfe67d27e1f9bc2e9963e43efa2fbb90acea1dbe3a28833604051808381526020018273ffffffffffffffffffffffffffffffffffffffff1673ffffffffffffffffffffffffffffffffffffffff1681526020019250505060405180910390a15b505050505b50505b5050565b60026020528060005260406000206000915090508060000160009054906101000a900473ffffffffffffffffffffffffffffffffffffffff16908060010160009054906101000a900473ffffffffffffffffffffffffffffffffffffffff1690806002018054600181600116156101000203166002900480601f016020809104026020016040519081016040528092919081815260200182805460018160011615610100020316600290048015613c655780601f10613c3a57610100808354040283529160200191613c65565b820191906000526020600020905b815481529060010190602001808311613c4857829003601f168201915b505050505090806003018054600181600116156101000203166002900480601f016020809104026020016040519081016040528092919081815260200182805460018160011615610100020316600290048015613d035780601f10613cd857610100808354040283529160200191613d03565b820191906000526020600020905b815481529060010190602001808311613ce657829003601f168201915b5050505050908060040160009054906101000a900473ffffffffffffffffffffffffffffffffffffffff16908060050160009054906101000a900473ffffffffffffffffffffffffffffffffffffffff16908060050160149054906101000a900460ff16908060060154908060070154905089565b8160007fb50b8c7887cd42a9ec052cf6f08c93c0987703edc4bb85236958ac3effb6aacd82826002600086815260200190815260200160002060050160149054906101000a900460ff166002600087815260200190815260200160002060050160149054906101000a900460ff166003811115613df157fe5b856003811115613dfd57fe5b1460405180858152602001846003811115613e1457fe5b60ff168152602001836003811115613e2857fe5b60ff1681526020018215151515815260200194505050505060405180910390a16002600083815260200190815260200160002060050160149054906101000a900460ff166003811115613e7757fe5b816003811115613e8357fe5b1415613f5f5760008090505b600a8160ff161015613f5d5760008090505b600a8160ff161015613f4f5760006002600088815260200190815260200160002060080160008773ffffffffffffffffffffffffffffffffffffffff1673ffffffffffffffffffffffffffffffffffffffff1681526020019081526020016000208360ff16600a8110613f1057fe5b018260ff16600a8110613f1f57fe5b602091828204019190066101000a81548160ff021916908360000b60ff1602179055508080600101915050613ea1565b508080600101915050613e8f565b505b50505050565b60006002600084815260200190815260200160002060000160009054906101000a900473ffffffffffffffffffffffffffffffffffffffff1673ffffffffffffffffffffffffffffffffffffffff168273ffffffffffffffffffffffffffffffffffffffff16141561400f576002600084815260200190815260200160002060010160009054906101000a900473ffffffffffffffffffffffffffffffffffffffff169050614049565b6002600084815260200190815260200160002060000160009054906101000a900473ffffffffffffffffffffffffffffffffffffffff1690505b92915050565b60008082121561408357817fffffffffffffffffffffffffffffffffffffffffffffffffffffffffffffffff029050614087565b8190505b919050565b828054600181600116156101000203166002900490600052602060002090601f016020900481019282601f106140cd57805160ff19168380011785556140fb565b828001600101855582156140fb579182015b828111156140fa5782518255916020019190600101906140df565b5b5090506141089190614241565b5090565b604051806101400160405280600a905b614124614266565b81526020019060019003908161411c5790505090565b828054600181600116156101000203166002900490600052602060002090601f016020900481019282601f1061417357805485556141b0565b828001600101855582156141b057600052602060002091601f016020900482015b828111156141af578254825591600101919060010190614194565b5b5090506141bd9190614241565b5090565b828054600181600116156101000203166002900490600052602060002090601f016020900481019282601f1061420257805160ff1916838001178555614230565b82800160010185558215614230579182015b8281111561422f578251825591602001919060010190614214565b5b50905061423d9190614241565b5090565b61426391905b8082111561425f576000816000905550600101614247565b5090565b90565b604051806101400160405280600a9060208202803883398082019150509050509056fe4e6f206d6f72652066756e647320696e2074686520636f6e747261637420666f7220746869732067616d65a265627a7a72315820c46e020565b18b748276a31768a119d6da2f24ec90e6b119b2d6058a056fcb2d64736f6c634300050c0032",
  "source": "pragma solidity >=0.4.21 <0.6.0;\ncontract BattleShip {\n\n    enum GameState { Created, SettingUp, Playing, Finished }\n\n    struct Game {\n        address player1;\n        address player2;\n        string player1Name;\n        string player2Name;\n        address currentPlayer;\n        address winner;\n        GameState gameState;\n        uint pot;\n        uint availablePot;\n        mapping(address => int8[10][10]) playerGrids;\n        mapping(address => bool[4]) playerShips;\n    }\n\n    mapping(address => string) public playerNames;\n    mapping(bytes32 => bool) public playerNameExists;\n    mapping(bytes32 => Game) public games;\n    mapping(address => bytes32[]) playerGames;\n\n    uint8 public maxBoatLength;\n    uint8 public minBoatLength;\n\n    // otherPlayerBoard\n    int8[10][10] otherPlayerBoard;\n\n    event PlayerSetName(address player, string name);\n\n    event GameInitialized(bytes32 gameId, address player1, bool player1GoesFirst, uint pot);\n    event GameJoined(bytes32 gameId, address player2);\n    event ShipPlaced(bytes32 gameId, address player, uint8 startX, uint8 endX, uint8 startY, uint8 endY);\n    event StateChanged(bytes32 gameId, GameState newState, string newStateString);\n\n    event MadeMove(bytes32 gameId, address currentPlayer, uint8 x, uint8 y);\n    event HitBattleShip(bytes32 gameId, address currentPlayer, uint8 x, uint8 y, int8 pieceHit);\n    event WonChallenged(bytes32 gameId, address player);\n    event GameEnded(bytes32 gameId, address winner);\n\n    event WinningsWithdrawn(bytes32 gameId, address player);\n    event WithdrawFailed(bytes32 gameId, address player, string reason);\n\n    event IsStateCalled(bytes32 gameId, GameState currentState, GameState comparingState, bool equal);\n    event IsPlayerCalled(bytes32 gameId, address player);\n    event LogCurrentState(bytes32 gameId, GameState state);\n\n    function stringToBytes32(string memory source) public pure returns (bytes32 result) {\n        assembly {\n            result := mload(add(source, 32))\n        }\n    }\n\n    modifier hasName() {\n        if(stringToBytes32(playerNames[msg.sender]) != bytes32(0x0)) _;\n    }\n\n    modifier isPlayer(bytes32 gameId) {\n        emit IsPlayerCalled(gameId,msg.sender);\n\n        if(msg.sender == games[gameId].player1 || msg.sender == games[gameId].player2) _;\n    }\n\n    modifier isCurrentPlayer(bytes32 gameId) {\n        if(msg.sender == games[gameId].currentPlayer) _;\n    }\n\n    modifier isState(bytes32 gameId, GameState state){\n        emit IsStateCalled(gameId,state, games[gameId].gameState, state == games[gameId].gameState);\n        if(state == games[gameId].gameState) _;\n    }\n\n    function abs(int number) internal pure returns(uint unumber) {\n        if(number < 0) return uint(-1 * number);\n        return uint(number);\n    }\n\n\n    function initialiseBoard(bytes32 gameId, address player) isState(gameId, GameState.Created) internal {\n        for(uint8 i = 0; i < 10; i++) {\n            for(uint8 j = 0; j < 10; j++) {\n                games[gameId].playerGrids[player][i][j] = 0;\n            }\n        }\n    }\n\n    function findOtherPlayer(bytes32 gameId,address player) internal view returns(address) {\n        if(player == games[gameId].player1) return games[gameId].player2;\n        return games[gameId].player1;\n    }\n\n    constructor() public {\n        maxBoatLength = 5;\n        minBoatLength = 2;\n    }\n\n    function setName(string memory name) public {\n        require(bytes(name).length <= 30);\n        bytes32 bytesname = stringToBytes32(name);\n        require(!playerNameExists[bytesname]);\n        playerNames[msg.sender] = name;\n        playerNameExists[bytesname] = true;\n        emit PlayerSetName(msg.sender,name);\n    }\n\n    function findPot(bytes32 gameId) public view returns(uint){\n        return games[gameId].pot;\n    }\n\n    function newGame(bool goFirst) hasName public payable returns(bytes32){\n        require(msg.value > 0);\n        // Generate game id based on player's addresses and current block number\n        bytes32 gameId = keccak256(abi.encodePacked(msg.sender, block.number));\n        playerGames[msg.sender].push(gameId);\n        games[gameId] = Game(\n            msg.sender, // address player1;\n            address(0), // address player2;\n            playerNames[msg.sender], //     string player1Name;\n            \"\",  // string player2Name;\n            address(0), // address currentPlayer;\n            address(0), // address winner;\n            GameState.Created, // GameState gameState;\n            msg.value * 2, // uint pot;\n            msg.value * 2 // uint availablePot;\n        );\n        if(goFirst){\n            games[gameId].currentPlayer = msg.sender;\n        }\n        emit GameInitialized(gameId,msg.sender,goFirst,msg.value * 2);\n        initialiseBoard(gameId,msg.sender);\n        return gameId;\n    }\n\n    function joinGame(bytes32 gameId) hasName public isState(gameId, GameState.Created) payable {\n        require(games[gameId].player2 == address(0));\n        require(msg.value == games[gameId].pot / 2);\n        games[gameId].player2 = msg.sender;\n        games[gameId].player2Name = playerNames[msg.sender];\n        playerGames[msg.sender].push(gameId);\n        if(games[gameId].currentPlayer == address(0)){\n            games[gameId].currentPlayer = msg.sender;\n        }\n        initialiseBoard(gameId,msg.sender);\n        emit GameJoined(gameId,msg.sender);\n        games[gameId].gameState = GameState.SettingUp;\n        emit StateChanged(gameId,GameState.SettingUp,\"SettingUp\");\n    }\n\n    function showBoard(bytes32 gameId) isPlayer(gameId) public returns(int8[10][10] memory board) {\n        return games[gameId].playerGrids[msg.sender];\n    }\n\n    function showOtherPlayerBoard(bytes32 gameId) isPlayer(gameId) public returns(int8[10][10] memory){\n        require(games[gameId].gameState == GameState.Playing || games[gameId].gameState == GameState.Finished);\n        address otherPlayer = findOtherPlayer(gameId,msg.sender);\n        int8[10][10] storage otherGrid = games[gameId].playerGrids[otherPlayer];\n        for(uint8 i = 0; i < 10; i++) {\n            for(uint j = 0; j < 10; j++) {\n                if(otherGrid[i][j] > 0 && otherGrid[i][j] < int(maxBoatLength + 1)){\n                    otherPlayerBoard[i][j] = 0;\n                }else{\n                    otherPlayerBoard[i][j] = otherGrid[i][j];\n                }\n            }\n        }\n        return otherPlayerBoard;\n    }\n\n    function placeShip(bytes32 gameId, uint8 startX, uint8 endX, uint8 startY, uint8 endY) public isPlayer(gameId) isState(gameId,GameState.SettingUp) {\n\n        require(startX == endX || startY == endY);\n        require(startX < endX || startY < endY);\n        require(startX  < 10 && startX  >= 0 &&\n                endX    < 10 && endX    >= 0 &&\n                startY  < 10 && startY  >= 0 &&\n                endY    < 10 && endY    >= 0);\n        for(uint8 x = startX; x <= endX; x++) {\n            for(uint8 y = startY; y <= endY; y++) {\n                require(games[gameId].playerGrids[msg.sender][x][y] == 0);\n            }\n        }\n        uint8 boatLength = 1;\n        if(startX == endX) {\n            boatLength += uint8(abs(int(startY) - int(endY)));\n        }else if(startY == endY) {\n            boatLength += uint8(abs(int(startX) - int(endX)));\n        }\n        require(boatLength <= maxBoatLength && boatLength >= minBoatLength);\n        require(!(games[gameId].playerShips[msg.sender][boatLength - minBoatLength]));\n\n        games[gameId].playerShips[msg.sender][boatLength - minBoatLength] = true;\n\n        emit LogCurrentState(gameId,games[gameId].gameState);\n\n        for(uint8 x = startX; x <= endX; x++) {\n            for(uint8 y = startY; y <= endY; y++) {\n                games[gameId].playerGrids[msg.sender][x][y] = int8(boatLength);\n            }\n        }\n\n        emit ShipPlaced(gameId, msg.sender, startX, endX, startY, endY);\n    }\n\n    function finishPlacing(bytes32 gameId) public isPlayer(gameId) isState(gameId,GameState.SettingUp) {\n        bool ready = true;\n        for(uint8 i = 0; i <= maxBoatLength - minBoatLength; i++) {\n            if(!games[gameId].playerShips[games[gameId].player1][i] || !games[gameId].playerShips[games[gameId].player2][i]) {\n                ready = false;\n                break;\n            }\n        }\n        require(ready);\n        games[gameId].gameState = GameState.Playing;\n        emit StateChanged(gameId,GameState.Playing,\"Playing\");\n    }\n\n    function makeMove(bytes32 gameId, uint8 x, uint8 y) public isState(gameId,GameState.Playing) isCurrentPlayer(gameId) {\n        address otherPlayer = findOtherPlayer(gameId,msg.sender);\n        require(games[gameId].playerGrids[otherPlayer][x][y] >= 0);\n        if(games[gameId].playerGrids[otherPlayer][x][y] > 0 && games[gameId].playerGrids[otherPlayer][x][y] < int(maxBoatLength + 1)) {\n            emit HitBattleShip(gameId,msg.sender,x,y,games[gameId].playerGrids[otherPlayer][x][y]);\n            games[gameId].playerGrids[otherPlayer][x][y] = -1 * games[gameId].playerGrids[otherPlayer][x][y];\n        }else{\n            games[gameId].playerGrids[otherPlayer][x][y] = int8(maxBoatLength + 1);\n        }\n        games[gameId].currentPlayer = otherPlayer;\n        emit MadeMove(gameId,msg.sender,x,y);\n    }\n\n    function sayWon(bytes32 gameId) public isPlayer(gameId) isState(gameId,GameState.Playing) {\n        emit WonChallenged(gameId,msg.sender);\n        address otherPlayer = findOtherPlayer(gameId,msg.sender);\n        uint8 requiredToWin = 0;\n        for(uint8 i = minBoatLength; i <= maxBoatLength; i++){\n            requiredToWin += i;\n        }\n        int8[10][10] storage otherPlayerGrid = games[gameId].playerGrids[otherPlayer];\n        uint8 numberHit = 0;\n        for(uint8 i = 0;  i < 10; i++) {\n            for(uint j = 0;  j < 10; j++) {\n                if(otherPlayerGrid[i][j] < 0){\n                    numberHit += 1;\n                }\n            }\n        }\n        if(numberHit >= requiredToWin){\n            games[gameId].gameState = GameState.Finished;\n            emit StateChanged(gameId,GameState.Finished,\"Finished\");\n            games[gameId].winner = msg.sender;\n            emit GameEnded(gameId,msg.sender);\n        }\n    }\n\n    function withdraw(bytes32 gameId) public {\n        if(games[gameId].gameState != GameState.Finished){\n            emit WithdrawFailed(gameId,msg.sender,'This game isnt over yet');\n        }else{\n            uint amount = games[gameId].availablePot;\n            if(amount > 0){\n                if(msg.sender == games[gameId].winner){\n                    games[gameId].availablePot = 0;\n                    msg.sender.transfer(amount);\n                    emit WinningsWithdrawn(gameId, msg.sender);\n                }else{\n                    emit WithdrawFailed(gameId,msg.sender,'This player hasnt won the game');\n                }\n            }else{\n                emit WithdrawFailed(gameId,msg.sender,'No more funds in the contract for this game');\n            }\n        }\n    }\n}",
  "sourcePath": "/home/tyrion/Git/battleship_blockchain/contracts/BattleShip.sol",
  "compiler": {
    "name": "solc",
    "version": "0.5.12+commit.7709ece9.Emscripten.clang"
  },
  "schemaVersion": "3.0.19",
  "updatedAt": "2019-12-04T09:25:59.086Z",
  "devdoc": {
    "methods": {}
  },
  "userdoc": {
    "methods": {}
  }
}